{"abi":[{"type":"constructor","inputs":[],"stateMutability":"nonpayable"},{"type":"function","name":"ADMIN_ROLE","inputs":[],"outputs":[{"name":"","type":"bytes32","internalType":"bytes32"}],"stateMutability":"view"},{"type":"function","name":"grantRole","inputs":[{"name":"role","type":"bytes32","internalType":"bytes32"},{"name":"account","type":"address","internalType":"address"}],"outputs":[],"stateMutability":"nonpayable"},{"type":"function","name":"hasRole","inputs":[{"name":"role","type":"bytes32","internalType":"bytes32"},{"name":"account","type":"address","internalType":"address"}],"outputs":[{"name":"","type":"bool","internalType":"bool"}],"stateMutability":"view"},{"type":"function","name":"revokeRole","inputs":[{"name":"role","type":"bytes32","internalType":"bytes32"},{"name":"account","type":"address","internalType":"address"}],"outputs":[],"stateMutability":"nonpayable"},{"type":"event","name":"RoleGranted","inputs":[{"name":"role","type":"bytes32","indexed":true,"internalType":"bytes32"},{"name":"account","type":"address","indexed":true,"internalType":"address"}],"anonymous":false},{"type":"event","name":"RoleRevoked","inputs":[{"name":"role","type":"bytes32","indexed":true,"internalType":"bytes32"},{"name":"account","type":"address","indexed":true,"internalType":"address"}],"anonymous":false},{"type":"error","name":"Unauthorized","inputs":[]}],"bytecode":{"object":"0x608060405234801561001057600080fd5b503360009081527f7d7ffb7a348e1c6a02869081a26547b49160dd3df72d1d75a570eb9b698292ec60205260409020805460ff191660011790556102b0806100596000396000f3fe608060405234801561001057600080fd5b506004361061004c5760003560e01c80632f2ff15d1461005157806375b238fc1461006657806391d14854146100a0578063d547741f146100c3575b600080fd5b61006461005f36600461023e565b6100d6565b005b61008d7fa49807205ce4d355092ef5a8a18f56e8913cf4a201fbe287825b095693c2177581565b6040519081526020015b60405180910390f35b6100b36100ae36600461023e565b610177565b6040519015158152602001610097565b6100646100d136600461023e565b6101a0565b7fa49807205ce4d355092ef5a8a18f56e8913cf4a201fbe287825b095693c217756101018133610177565b61011d576040516282b42960e81b815260040160405180910390fd5b6000838152602081815260408083206001600160a01b0386168085529252808320805460ff1916600117905551909185917f2ae6a113c0ed5b78a53413ffbb7679881f11145ccfba4fb92e863dfcd5a1d2f39190a3505050565b6000918252602082815260408084206001600160a01b0393909316845291905290205460ff1690565b7fa49807205ce4d355092ef5a8a18f56e8913cf4a201fbe287825b095693c217756101cb8133610177565b6101e7576040516282b42960e81b815260040160405180910390fd5b6000838152602081815260408083206001600160a01b0386168085529252808320805460ff1916905551909185917f155aaafb6329a2098580462df33ec4b7441b19729b9601c5fc17ae1cf99a8a529190a3505050565b6000806040838503121561025157600080fd5b8235915060208301356001600160a01b038116811461026f57600080fd5b80915050925092905056fea2646970667358221220399f9dfb219486531214d5c80db6e427eb4b08f1494ad311556769b7f0e9796d64736f6c63430008140033","linkReferences":{}},"methodIdentifiers":{"ADMIN_ROLE()":"75b238fc","grantRole(bytes32,address)":"2f2ff15d","hasRole(bytes32,address)":"91d14854","revokeRole(bytes32,address)":"d547741f"},"id":19}